{
  "contractName": "PickUpLiner",
  "abi": [
    {
      "inputs": [],
      "stateMutability": "nonpayable",
      "type": "constructor"
    },
    {
      "anonymous": false,
      "inputs": [
        {
          "components": [
            {
              "internalType": "uint256",
              "name": "id",
              "type": "uint256"
            },
            {
              "internalType": "string",
              "name": "line",
              "type": "string"
            }
          ],
          "indexed": false,
          "internalType": "struct PickUpLiner.PickUpLine",
          "name": "pickUpLine",
          "type": "tuple"
        }
      ],
      "name": "PickUpLineAdded",
      "type": "event"
    },
    {
      "inputs": [],
      "name": "owner",
      "outputs": [
        {
          "internalType": "address",
          "name": "",
          "type": "address"
        }
      ],
      "stateMutability": "view",
      "type": "function"
    },
    {
      "inputs": [],
      "name": "makeDonationToContract",
      "outputs": [],
      "stateMutability": "payable",
      "type": "function"
    },
    {
      "inputs": [
        {
          "components": [
            {
              "internalType": "uint256",
              "name": "id",
              "type": "uint256"
            },
            {
              "internalType": "string",
              "name": "line",
              "type": "string"
            }
          ],
          "internalType": "struct PickUpLiner.PickUpLine",
          "name": "_pickUpLine",
          "type": "tuple"
        }
      ],
      "name": "addPickUpLine",
      "outputs": [],
      "stateMutability": "nonpayable",
      "type": "function"
    },
    {
      "inputs": [
        {
          "internalType": "uint256",
          "name": "_pickUpLineId",
          "type": "uint256"
        }
      ],
      "name": "completePickUpLine",
      "outputs": [],
      "stateMutability": "nonpayable",
      "type": "function"
    },
    {
      "inputs": [
        {
          "internalType": "address",
          "name": "_user",
          "type": "address"
        }
      ],
      "name": "getUserPickUpLineArray",
      "outputs": [
        {
          "internalType": "uint256[]",
          "name": "",
          "type": "uint256[]"
        }
      ],
      "stateMutability": "view",
      "type": "function"
    },
    {
      "inputs": [
        {
          "internalType": "uint256",
          "name": "_index",
          "type": "uint256"
        }
      ],
      "name": "getPickUpLine",
      "outputs": [
        {
          "components": [
            {
              "internalType": "uint256",
              "name": "id",
              "type": "uint256"
            },
            {
              "internalType": "string",
              "name": "line",
              "type": "string"
            }
          ],
          "internalType": "struct PickUpLiner.PickUpLine",
          "name": "",
          "type": "tuple"
        }
      ],
      "stateMutability": "view",
      "type": "function"
    },
    {
      "inputs": [],
      "name": "getPickUpLineLength",
      "outputs": [
        {
          "internalType": "uint256",
          "name": "",
          "type": "uint256"
        }
      ],
      "stateMutability": "view",
      "type": "function"
    }
  ],
  "bytecode": "0x608060405234801561001057600080fd5b5033600260006101000a81548173ffffffffffffffffffffffffffffffffffffffff021916908373ffffffffffffffffffffffffffffffffffffffff160217905550611048806100616000396000f3fe6080604052600436106100705760003560e01c8063657788361161004e57806365778836146100f95780638da5cb5b14610122578063b653083c1461014d578063ecabec8b1461017657610070565b80632bc1851514610075578063583225a6146100b25780635d2a717c146100bc575b600080fd5b34801561008157600080fd5b5061009c600480360381019061009791906106cd565b6101a1565b6040516100a991906107df565b60405180910390f35b6100ba610279565b005b3480156100c857600080fd5b506100e360048036038101906100de919061085f565b6102c2565b6040516100f0919061093b565b60405180910390f35b34801561010557600080fd5b50610120600480360381019061011b91906106cd565b610359565b005b34801561012e57600080fd5b50610137610424565b604051610144919061096c565b60405180910390f35b34801561015957600080fd5b50610174600480360381019061016f9190610b32565b61044a565b005b34801561018257600080fd5b5061018b610528565b6040516101989190610b8a565b60405180910390f35b6101a9610669565b600082815481106101bd576101bc610ba5565b5b9060005260206000209060020201604051806040016040529081600082015481526020016001820180546101f090610c03565b80601f016020809104026020016040519081016040528092919081815260200182805461021c90610c03565b80156102695780601f1061023e57610100808354040283529160200191610269565b820191906000526020600020905b81548152906001019060200180831161024c57829003601f168201915b5050505050815250509050919050565b3073ffffffffffffffffffffffffffffffffffffffff166108fc349081150290604051600060405180830381858888f193505050501580156102bf573d6000803e3d6000fd5b50565b6060600160008373ffffffffffffffffffffffffffffffffffffffff1673ffffffffffffffffffffffffffffffffffffffff16815260200190815260200160002080548060200260200160405190810160405280929190818152602001828054801561034d57602002820191906000526020600020905b815481526020019060010190808311610339575b50505050509050919050565b8060008054905081111561036c57600080fd5b33826103788282610534565b156103b8576040517f08c379a00000000000000000000000000000000000000000000000000000000081526004016103af90610c91565b60405180910390fd5b600160003373ffffffffffffffffffffffffffffffffffffffff1673ffffffffffffffffffffffffffffffffffffffff16815260200190815260200160002084908060018154018082558091505060019003906000526020600020016000909190919091505550505050565b600260009054906101000a900473ffffffffffffffffffffffffffffffffffffffff1681565b610452610611565b610491576040517f08c379a000000000000000000000000000000000000000000000000000000000815260040161048890610cfd565b60405180910390fd5b60008054905081600001818152505060008190806001815401808255809150506001900390600052602060002090600202016000909190919091506000820151816000015560208201518160010190816104eb9190610ec9565b5050507f1c5236e6929d3233db21d8cf765ce839ee274dc39c0571b7813ea81c842011f98160405161051d91906107df565b60405180910390a150565b60008080549050905090565b600080600090505b600160008573ffffffffffffffffffffffffffffffffffffffff1673ffffffffffffffffffffffffffffffffffffffff168152602001908152602001600020805490508110156106055782600160008673ffffffffffffffffffffffffffffffffffffffff1673ffffffffffffffffffffffffffffffffffffffff16815260200190815260200160002082815481106105d8576105d7610ba5565b5b9060005260206000200154036105f257600191505061060b565b80806105fd90610fca565b91505061053c565b50600090505b92915050565b6000600260009054906101000a900473ffffffffffffffffffffffffffffffffffffffff1673ffffffffffffffffffffffffffffffffffffffff163373ffffffffffffffffffffffffffffffffffffffff1614905090565b604051806040016040528060008152602001606081525090565b6000604051905090565b600080fd5b600080fd5b6000819050919050565b6106aa81610697565b81146106b557600080fd5b50565b6000813590506106c7816106a1565b92915050565b6000602082840312156106e3576106e261068d565b5b60006106f1848285016106b8565b91505092915050565b61070381610697565b82525050565b600081519050919050565b600082825260208201905092915050565b60005b83811015610743578082015181840152602081019050610728565b83811115610752576000848401525b50505050565b6000601f19601f8301169050919050565b600061077482610709565b61077e8185610714565b935061078e818560208601610725565b61079781610758565b840191505092915050565b60006040830160008301516107ba60008601826106fa565b50602083015184820360208601526107d28282610769565b9150508091505092915050565b600060208201905081810360008301526107f981846107a2565b905092915050565b600073ffffffffffffffffffffffffffffffffffffffff82169050919050565b600061082c82610801565b9050919050565b61083c81610821565b811461084757600080fd5b50565b60008135905061085981610833565b92915050565b6000602082840312156108755761087461068d565b5b60006108838482850161084a565b91505092915050565b600081519050919050565b600082825260208201905092915050565b6000819050602082019050919050565b60006108c483836106fa565b60208301905092915050565b6000602082019050919050565b60006108e88261088c565b6108f28185610897565b93506108fd836108a8565b8060005b8381101561092e57815161091588826108b8565b9750610920836108d0565b925050600181019050610901565b5085935050505092915050565b6000602082019050818103600083015261095581846108dd565b905092915050565b61096681610821565b82525050565b6000602082019050610981600083018461095d565b92915050565b600080fd5b7f4e487b7100000000000000000000000000000000000000000000000000000000600052604160045260246000fd5b6109c482610758565b810181811067ffffffffffffffff821117156109e3576109e261098c565b5b80604052505050565b60006109f6610683565b9050610a0282826109bb565b919050565b600080fd5b600080fd5b600080fd5b600067ffffffffffffffff821115610a3157610a3061098c565b5b610a3a82610758565b9050602081019050919050565b82818337600083830152505050565b6000610a69610a6484610a16565b6109ec565b905082815260208101848484011115610a8557610a84610a11565b5b610a90848285610a47565b509392505050565b600082601f830112610aad57610aac610a0c565b5b8135610abd848260208601610a56565b91505092915050565b600060408284031215610adc57610adb610987565b5b610ae660406109ec565b90506000610af6848285016106b8565b600083015250602082013567ffffffffffffffff811115610b1a57610b19610a07565b5b610b2684828501610a98565b60208301525092915050565b600060208284031215610b4857610b4761068d565b5b600082013567ffffffffffffffff811115610b6657610b65610692565b5b610b7284828501610ac6565b91505092915050565b610b8481610697565b82525050565b6000602082019050610b9f6000830184610b7b565b92915050565b7f4e487b7100000000000000000000000000000000000000000000000000000000600052603260045260246000fd5b7f4e487b7100000000000000000000000000000000000000000000000000000000600052602260045260246000fd5b60006002820490506001821680610c1b57607f821691505b602082108103610c2e57610c2d610bd4565b5b50919050565b600082825260208201905092915050565b7f436f6e747261637420697320616c726561647920636f6d706c65746564000000600082015250565b6000610c7b601d83610c34565b9150610c8682610c45565b602082019050919050565b60006020820190508181036000830152610caa81610c6e565b9050919050565b7f596f75277265206e6f7420746865206f776e6572000000000000000000000000600082015250565b6000610ce7601483610c34565b9150610cf282610cb1565b602082019050919050565b60006020820190508181036000830152610d1681610cda565b9050919050565b60008190508160005260206000209050919050565b60006020601f8301049050919050565b600082821b905092915050565b600060088302610d7f7fffffffffffffffffffffffffffffffffffffffffffffffffffffffffffffffff82610d42565b610d898683610d42565b95508019841693508086168417925050509392505050565b6000819050919050565b6000610dc6610dc1610dbc84610697565b610da1565b610697565b9050919050565b6000819050919050565b610de083610dab565b610df4610dec82610dcd565b848454610d4f565b825550505050565b600090565b610e09610dfc565b610e14818484610dd7565b505050565b5b81811015610e3857610e2d600082610e01565b600181019050610e1a565b5050565b601f821115610e7d57610e4e81610d1d565b610e5784610d32565b81016020851015610e66578190505b610e7a610e7285610d32565b830182610e19565b50505b505050565b600082821c905092915050565b6000610ea060001984600802610e82565b1980831691505092915050565b6000610eb98383610e8f565b9150826002028217905092915050565b610ed282610709565b67ffffffffffffffff811115610eeb57610eea61098c565b5b610ef58254610c03565b610f00828285610e3c565b600060209050601f831160018114610f335760008415610f21578287015190505b610f2b8582610ead565b865550610f93565b601f198416610f4186610d1d565b60005b82811015610f6957848901518255600182019150602085019450602081019050610f44565b86831015610f865784890151610f82601f891682610e8f565b8355505b6001600288020188555050505b505050505050565b7f4e487b7100000000000000000000000000000000000000000000000000000000600052601160045260246000fd5b6000610fd582610697565b91507fffffffffffffffffffffffffffffffffffffffffffffffffffffffffffffffff820361100757611006610f9b565b5b60018201905091905056fea26469706673582212203be2a06b5851ae199d963cc6c5a369a75446578d6f454f37e664ddc1ffae912064736f6c634300080f0033",
  "immutableReferences": {},
  "source": "// SPDX-License-Identifier: MIT\npragma solidity >=0.4.22 <0.9.0;\n\ncontract PickUpLiner {\n    event PickUpLineAdded(PickUpLine pickUpLine);\n\n    PickUpLine[] private pickUpLines;\n    mapping(address => uint256[]) private _userToPickUpLine;\n    address public owner;\n\n    struct PickUpLine {\n        uint256 id;\n        string line;\n    }\n\n    constructor() {\n        owner = msg.sender;\n    }\n\n    function makeDonationToContract() public payable {\n        payable(address(this)).transfer(msg.value);\n    }\n\n    /**\n     * @dev Will add pick up line to pick up line array\n     */\n    function addPickUpLine(PickUpLine memory _pickUpLine) public onlyOwner {\n        _pickUpLine.id = pickUpLines.length;\n        pickUpLines.push(_pickUpLine);\n\n        emit PickUpLineAdded(_pickUpLine);\n    }\n\n    function completePickUpLine(uint256 _pickUpLineId) pickUpLineExist(_pickUpLineId) notCompletedBefore(msg.sender, _pickUpLineId) public {\n        // add user to pick up line\n        _userToPickUpLine[msg.sender].push(_pickUpLineId);\n\n        // payable(msg.sender).transfer(0.01 ether);\n    }\n\n    // getters\n\n    function getUserPickUpLineArray(address _user) public view returns(uint256[] memory) {\n      return _userToPickUpLine[_user];\n    }\n\n    function getPickUpLine(uint256 _index) public view returns (PickUpLine memory) {\n        return pickUpLines[_index];\n    }\n\n    function getPickUpLineLength() public view returns (uint256) {\n        return pickUpLines.length;\n    }\n\n    // PRIVATE METHODS\n\n    /**\n     * @return true if `msg.sender` is the owner of the contract.\n     */\n    function _isOwner() private view returns (bool) {\n        return msg.sender == owner;\n    }\n\n    function _getPickUpLineById(uint256 _pickUpLineId) private view returns (PickUpLine memory) {\n        return pickUpLines[_pickUpLineId - 1];\n    }\n\n    function _isCompleted(address _sender, uint256 _pickUpLineId) private view returns (bool) {\n        for (uint256 index = 0; index < _userToPickUpLine[_sender].length; index++) {\n            if (_userToPickUpLine[_sender][index] == _pickUpLineId) {\n                return true;\n            }\n        }\n        return false;\n    }\n\n    // MODIFIERS\n\n    /**\n     * @dev Will throw if not called by owner.\n     */\n    modifier onlyOwner() {\n        require(_isOwner(), 'You\\'re not the owner');\n        _;\n    }\n\n    // add private methods for that then simply call the private method in require\n    modifier notCompletedBefore(address _sender, uint256 _pickUpLineId) {\n        require(!_isCompleted(_sender, _pickUpLineId), 'Contract is already completed');\n        _;\n    }\n\n    modifier pickUpLineExist(uint256 _pickUpLineId) {\n        require(_pickUpLineId <= pickUpLines.length);\n        _;\n    }\n}\n",
  "sourcePath": "C:\\Users\\sasuke\\Desktop\\universite\\IFT-4100Aspectspratiquesdelachainedeblocs\\Tp\\tp3\\tp3-code\\contracts\\PickUpLiner.sol",
  "compiler": {
    "name": "solc",
    "version": "0.8.15+commit.e14f2714.Emscripten.clang"
  },
  "schemaVersion": "3.4.8",
  "updatedAt": "2022-07-24T21:07:14.167Z",
  "devdoc": {
    "kind": "dev",
    "methods": {
      "addPickUpLine((uint256,string))": {
        "details": "Will add pick up line to pick up line array"
      }
    },
    "version": 1
  },
  "userdoc": {
    "kind": "user",
    "methods": {},
    "version": 1
  }
}