{
  "contractName": "PickUpLiner",
  "abi": [
    {
      "inputs": [],
      "stateMutability": "nonpayable",
      "type": "constructor"
    },
    {
      "anonymous": false,
      "inputs": [
        {
          "components": [
            {
              "internalType": "uint256",
              "name": "id",
              "type": "uint256"
            },
            {
              "internalType": "string",
              "name": "line",
              "type": "string"
            }
          ],
          "indexed": false,
          "internalType": "struct PickUpLiner.PickUpLine",
          "name": "pickUpLine",
          "type": "tuple"
        }
      ],
      "name": "PickUpLineAdded",
      "type": "event"
    },
    {
      "inputs": [],
      "name": "completedPickUpLinesAmount",
      "outputs": [
        {
          "internalType": "uint256",
          "name": "",
          "type": "uint256"
        }
      ],
      "stateMutability": "view",
      "type": "function",
      "constant": true
    },
    {
      "inputs": [],
      "name": "owner",
      "outputs": [
        {
          "internalType": "address",
          "name": "",
          "type": "address"
        }
      ],
      "stateMutability": "view",
      "type": "function",
      "constant": true
    },
    {
      "inputs": [],
      "name": "makeDonationToOwner",
      "outputs": [],
      "stateMutability": "payable",
      "type": "function",
      "payable": true
    },
    {
      "inputs": [
        {
          "internalType": "uint256",
          "name": "_completedPickUpLinesAmount",
          "type": "uint256"
        }
      ],
      "name": "setAmountOfPickUpLine",
      "outputs": [],
      "stateMutability": "nonpayable",
      "type": "function"
    },
    {
      "inputs": [
        {
          "components": [
            {
              "internalType": "uint256",
              "name": "id",
              "type": "uint256"
            },
            {
              "internalType": "string",
              "name": "line",
              "type": "string"
            }
          ],
          "internalType": "struct PickUpLiner.PickUpLine",
          "name": "_pickUpLine",
          "type": "tuple"
        }
      ],
      "name": "addPickUpLine",
      "outputs": [],
      "stateMutability": "nonpayable",
      "type": "function"
    },
    {
      "inputs": [
        {
          "internalType": "uint256",
          "name": "_pickUpLineId",
          "type": "uint256"
        }
      ],
      "name": "completePickUpLine",
      "outputs": [],
      "stateMutability": "nonpayable",
      "type": "function"
    },
    {
      "inputs": [
        {
          "internalType": "address",
          "name": "_user",
          "type": "address"
        }
      ],
      "name": "getUserPickUpLineArray",
      "outputs": [
        {
          "internalType": "uint256[]",
          "name": "",
          "type": "uint256[]"
        }
      ],
      "stateMutability": "view",
      "type": "function",
      "constant": true
    },
    {
      "inputs": [
        {
          "internalType": "uint256",
          "name": "_index",
          "type": "uint256"
        }
      ],
      "name": "getPickUpLine",
      "outputs": [
        {
          "components": [
            {
              "internalType": "uint256",
              "name": "id",
              "type": "uint256"
            },
            {
              "internalType": "string",
              "name": "line",
              "type": "string"
            }
          ],
          "internalType": "struct PickUpLiner.PickUpLine",
          "name": "",
          "type": "tuple"
        }
      ],
      "stateMutability": "view",
      "type": "function",
      "constant": true
    },
    {
      "inputs": [],
      "name": "getPickUpLineLength",
      "outputs": [
        {
          "internalType": "uint256",
          "name": "",
          "type": "uint256"
        }
      ],
      "stateMutability": "view",
      "type": "function",
      "constant": true
    }
  ],
  "bytecode": "0x6080604052600060035534801561001557600080fd5b5033600260006101000a81548173ffffffffffffffffffffffffffffffffffffffff021916908373ffffffffffffffffffffffffffffffffffffffff1602179055506111e3806100666000396000f3fe6080604052600436106100865760003560e01c80636577883611610059578063657788361461013a5780638da5cb5b146101635780639e67ddd01461018e578063b653083c146101b7578063ecabec8b146101e057610086565b806310b83fcb1461008b5780632bc18515146100b65780635d2a717c146100f35780636552fdd214610130575b600080fd5b34801561009757600080fd5b506100a061020b565b6040516100ad91906107cb565b60405180910390f35b3480156100c257600080fd5b506100dd60048036038101906100d89190610826565b610211565b6040516100ea9190610938565b60405180910390f35b3480156100ff57600080fd5b5061011a600480360381019061011591906109b8565b6102e9565b6040516101279190610a94565b60405180910390f35b610138610380565b005b34801561014657600080fd5b50610161600480360381019061015c9190610826565b6103eb565b005b34801561016f57600080fd5b50610178610502565b6040516101859190610ac5565b60405180910390f35b34801561019a57600080fd5b506101b560048036038101906101b09190610826565b610528565b005b3480156101c357600080fd5b506101de60048036038101906101d99190610c8b565b610579565b005b3480156101ec57600080fd5b506101f5610657565b60405161020291906107cb565b60405180910390f35b60035481565b610219610798565b6000828154811061022d5761022c610cd4565b5b90600052602060002090600202016040518060400160405290816000820154815260200160018201805461026090610d32565b80601f016020809104026020016040519081016040528092919081815260200182805461028c90610d32565b80156102d95780601f106102ae576101008083540402835291602001916102d9565b820191906000526020600020905b8154815290600101906020018083116102bc57829003601f168201915b5050505050815250509050919050565b6060600160008373ffffffffffffffffffffffffffffffffffffffff1673ffffffffffffffffffffffffffffffffffffffff16815260200190815260200160002080548060200260200160405190810160405280929190818152602001828054801561037457602002820191906000526020600020905b815481526020019060010190808311610360575b50505050509050919050565b600260009054906101000a900473ffffffffffffffffffffffffffffffffffffffff1673ffffffffffffffffffffffffffffffffffffffff166108fc349081150290604051600060405180830381858888f193505050501580156103e8573d6000803e3d6000fd5b50565b80600080549050811115610434576040517f08c379a000000000000000000000000000000000000000000000000000000000815260040161042b90610dc0565b60405180910390fd5b8161043f3382610663565b1561047f576040517f08c379a000000000000000000000000000000000000000000000000000000000815260040161047690610e2c565b60405180910390fd5b600160003373ffffffffffffffffffffffffffffffffffffffff1673ffffffffffffffffffffffffffffffffffffffff168152602001908152602001600020839080600181540180825580915050600190039060005260206000200160009091909190915055600360008154809291906104f890610e7b565b9190505550505050565b600260009054906101000a900473ffffffffffffffffffffffffffffffffffffffff1681565b610530610740565b61056f576040517f08c379a000000000000000000000000000000000000000000000000000000000815260040161056690610f0f565b60405180910390fd5b8060038190555050565b610581610740565b6105c0576040517f08c379a00000000000000000000000000000000000000000000000000000000081526004016105b790610f0f565b60405180910390fd5b600080549050816000018181525050600081908060018154018082558091505060019003906000526020600020906002020160009091909190915060008201518160000155602082015181600101908161061a91906110db565b5050507f1c5236e6929d3233db21d8cf765ce839ee274dc39c0571b7813ea81c842011f98160405161064c9190610938565b60405180910390a150565b60008080549050905090565b600080600090505b600160008573ffffffffffffffffffffffffffffffffffffffff1673ffffffffffffffffffffffffffffffffffffffff168152602001908152602001600020805490508110156107345782600160008673ffffffffffffffffffffffffffffffffffffffff1673ffffffffffffffffffffffffffffffffffffffff168152602001908152602001600020828154811061070757610706610cd4565b5b90600052602060002001540361072157600191505061073a565b808061072c90610e7b565b91505061066b565b50600090505b92915050565b6000600260009054906101000a900473ffffffffffffffffffffffffffffffffffffffff1673ffffffffffffffffffffffffffffffffffffffff163373ffffffffffffffffffffffffffffffffffffffff1614905090565b604051806040016040528060008152602001606081525090565b6000819050919050565b6107c5816107b2565b82525050565b60006020820190506107e060008301846107bc565b92915050565b6000604051905090565b600080fd5b600080fd5b610803816107b2565b811461080e57600080fd5b50565b600081359050610820816107fa565b92915050565b60006020828403121561083c5761083b6107f0565b5b600061084a84828501610811565b91505092915050565b61085c816107b2565b82525050565b600081519050919050565b600082825260208201905092915050565b60005b8381101561089c578082015181840152602081019050610881565b838111156108ab576000848401525b50505050565b6000601f19601f8301169050919050565b60006108cd82610862565b6108d7818561086d565b93506108e781856020860161087e565b6108f0816108b1565b840191505092915050565b60006040830160008301516109136000860182610853565b506020830151848203602086015261092b82826108c2565b9150508091505092915050565b6000602082019050818103600083015261095281846108fb565b905092915050565b600073ffffffffffffffffffffffffffffffffffffffff82169050919050565b60006109858261095a565b9050919050565b6109958161097a565b81146109a057600080fd5b50565b6000813590506109b28161098c565b92915050565b6000602082840312156109ce576109cd6107f0565b5b60006109dc848285016109a3565b91505092915050565b600081519050919050565b600082825260208201905092915050565b6000819050602082019050919050565b6000610a1d8383610853565b60208301905092915050565b6000602082019050919050565b6000610a41826109e5565b610a4b81856109f0565b9350610a5683610a01565b8060005b83811015610a87578151610a6e8882610a11565b9750610a7983610a29565b925050600181019050610a5a565b5085935050505092915050565b60006020820190508181036000830152610aae8184610a36565b905092915050565b610abf8161097a565b82525050565b6000602082019050610ada6000830184610ab6565b92915050565b600080fd5b7f4e487b7100000000000000000000000000000000000000000000000000000000600052604160045260246000fd5b610b1d826108b1565b810181811067ffffffffffffffff82111715610b3c57610b3b610ae5565b5b80604052505050565b6000610b4f6107e6565b9050610b5b8282610b14565b919050565b600080fd5b600080fd5b600080fd5b600067ffffffffffffffff821115610b8a57610b89610ae5565b5b610b93826108b1565b9050602081019050919050565b82818337600083830152505050565b6000610bc2610bbd84610b6f565b610b45565b905082815260208101848484011115610bde57610bdd610b6a565b5b610be9848285610ba0565b509392505050565b600082601f830112610c0657610c05610b65565b5b8135610c16848260208601610baf565b91505092915050565b600060408284031215610c3557610c34610ae0565b5b610c3f6040610b45565b90506000610c4f84828501610811565b600083015250602082013567ffffffffffffffff811115610c7357610c72610b60565b5b610c7f84828501610bf1565b60208301525092915050565b600060208284031215610ca157610ca06107f0565b5b600082013567ffffffffffffffff811115610cbf57610cbe6107f5565b5b610ccb84828501610c1f565b91505092915050565b7f4e487b7100000000000000000000000000000000000000000000000000000000600052603260045260246000fd5b7f4e487b7100000000000000000000000000000000000000000000000000000000600052602260045260246000fd5b60006002820490506001821680610d4a57607f821691505b602082108103610d5d57610d5c610d03565b5b50919050565b600082825260208201905092915050565b7f5069636b207570206c696e6520646f65736e2774206578697374000000000000600082015250565b6000610daa601a83610d63565b9150610db582610d74565b602082019050919050565b60006020820190508181036000830152610dd981610d9d565b9050919050565b7f436f6e747261637420697320616c726561647920636f6d706c65746564000000600082015250565b6000610e16601d83610d63565b9150610e2182610de0565b602082019050919050565b60006020820190508181036000830152610e4581610e09565b9050919050565b7f4e487b7100000000000000000000000000000000000000000000000000000000600052601160045260246000fd5b6000610e86826107b2565b91507fffffffffffffffffffffffffffffffffffffffffffffffffffffffffffffffff8203610eb857610eb7610e4c565b5b600182019050919050565b7f596f75277265206e6f7420746865206f776e6572000000000000000000000000600082015250565b6000610ef9601483610d63565b9150610f0482610ec3565b602082019050919050565b60006020820190508181036000830152610f2881610eec565b9050919050565b60008190508160005260206000209050919050565b60006020601f8301049050919050565b600082821b905092915050565b600060088302610f917fffffffffffffffffffffffffffffffffffffffffffffffffffffffffffffffff82610f54565b610f9b8683610f54565b95508019841693508086168417925050509392505050565b6000819050919050565b6000610fd8610fd3610fce846107b2565b610fb3565b6107b2565b9050919050565b6000819050919050565b610ff283610fbd565b611006610ffe82610fdf565b848454610f61565b825550505050565b600090565b61101b61100e565b611026818484610fe9565b505050565b5b8181101561104a5761103f600082611013565b60018101905061102c565b5050565b601f82111561108f5761106081610f2f565b61106984610f44565b81016020851015611078578190505b61108c61108485610f44565b83018261102b565b50505b505050565b600082821c905092915050565b60006110b260001984600802611094565b1980831691505092915050565b60006110cb83836110a1565b9150826002028217905092915050565b6110e482610862565b67ffffffffffffffff8111156110fd576110fc610ae5565b5b6111078254610d32565b61111282828561104e565b600060209050601f8311600181146111455760008415611133578287015190505b61113d85826110bf565b8655506111a5565b601f19841661115386610f2f565b60005b8281101561117b57848901518255600182019150602085019450602081019050611156565b868310156111985784890151611194601f8916826110a1565b8355505b6001600288020188555050505b50505050505056fea2646970667358221220a6bef4f1395456001a301549a8da5bcba5c2eb9419a7777b259723c43ccd864264736f6c634300080f0033",
  "immutableReferences": {},
  "source": "// SPDX-License-Identifier: MIT\npragma solidity >= 0.8.0;\n\ncontract PickUpLiner {\n    event PickUpLineAdded(PickUpLine pickUpLine);\n\n    PickUpLine[] private pickUpLines;\n    mapping(address => uint256[]) private _userToPickUpLine;\n    address public owner;\n    uint256 public completedPickUpLinesAmount = 0;\n\n    struct PickUpLine {\n        uint256 id;\n        string line;\n    }\n\n    constructor() {\n        owner = msg.sender;\n    }\n\n    function makeDonationToOwner() public payable {\n        payable(owner).transfer(msg.value);\n    }\n\n    function setAmountOfPickUpLine(uint256 _completedPickUpLinesAmount) public onlyOwner {\n        completedPickUpLinesAmount = _completedPickUpLinesAmount;\n    }\n\n    /**\n     * @dev Will add pick up line to pick up line array\n     */\n    function addPickUpLine(PickUpLine memory _pickUpLine) public onlyOwner {\n        _pickUpLine.id = pickUpLines.length;\n        pickUpLines.push(_pickUpLine);\n\n        emit PickUpLineAdded(_pickUpLine);\n    }\n\n    function completePickUpLine(uint256 _pickUpLineId) pickUpLineExist(_pickUpLineId) notCompletedBefore(_pickUpLineId) public {\n        _userToPickUpLine[msg.sender].push(_pickUpLineId);\n        completedPickUpLinesAmount++;\n    }\n\n    // getters\n\n    function getUserPickUpLineArray(address _user) public view returns(uint256[] memory) {\n      return _userToPickUpLine[_user];\n    }\n\n    function getPickUpLine(uint256 _index) public view returns (PickUpLine memory) {\n        return pickUpLines[_index];\n    }\n\n    function getPickUpLineLength() public view returns (uint256) {\n        return pickUpLines.length;\n    }\n\n    // PRIVATE METHODS\n\n    /**\n     * @return true if `msg.sender` is the owner of the contract.\n     */\n    function _isOwner() private view returns (bool) {\n        return msg.sender == owner;\n    }\n\n    function _getPickUpLineById(uint256 _pickUpLineId) private view returns (PickUpLine memory) {\n        return pickUpLines[_pickUpLineId - 1];\n    }\n\n    function _isCompleted(address _sender, uint256 _pickUpLineId) private view returns (bool) {\n        for (uint256 index = 0; index < _userToPickUpLine[_sender].length; index++) {\n            if (_userToPickUpLine[_sender][index] == _pickUpLineId) {\n                return true;\n            }\n        }\n        return false;\n    }\n\n    // MODIFIERS\n\n    /**\n     * @dev Will throw if not called by owner.\n     */\n    modifier onlyOwner() {\n        require(_isOwner(), 'You\\'re not the owner');\n        _;\n    }\n\n    // add private methods for that then simply call the private method in require\n    modifier notCompletedBefore(uint256 _pickUpLineId) {\n        require(!_isCompleted(msg.sender, _pickUpLineId), 'Contract is already completed');\n        _;\n    }\n\n    modifier pickUpLineExist(uint256 _pickUpLineId) {\n        require(_pickUpLineId <= pickUpLines.length, 'Pick up line doesn\\'t exist');\n        _;\n    }\n}\n",
  "sourcePath": "C:\\Users\\sasuke\\Desktop\\universite\\IFT-4100Aspectspratiquesdelachainedeblocs\\Tp\\tp3\\tp3-code\\contracts\\PickUpLiner.sol",
  "compiler": {
    "name": "solc",
    "version": "0.8.15+commit.e14f2714.Emscripten.clang"
  },
  "schemaVersion": "3.4.8",
  "updatedAt": "2022-07-25T02:48:37.392Z",
  "networkType": "ethereum",
  "devdoc": {
    "kind": "dev",
    "methods": {
      "addPickUpLine((uint256,string))": {
        "details": "Will add pick up line to pick up line array"
      }
    },
    "version": 1
  },
  "userdoc": {
    "kind": "user",
    "methods": {},
    "version": 1
  }
}