{
  "contractName": "PickUpLiner",
  "abi": [
    {
      "inputs": [],
      "stateMutability": "nonpayable",
      "type": "constructor"
    },
    {
      "anonymous": false,
      "inputs": [
        {
          "components": [
            {
              "internalType": "uint256",
              "name": "id",
              "type": "uint256"
            },
            {
              "internalType": "string",
              "name": "line",
              "type": "string"
            }
          ],
          "indexed": false,
          "internalType": "struct PickUpLiner.PickUpLine",
          "name": "pickUpLine",
          "type": "tuple"
        }
      ],
      "name": "PickUpLineAdded",
      "type": "event"
    },
    {
      "inputs": [],
      "name": "owner",
      "outputs": [
        {
          "internalType": "address",
          "name": "",
          "type": "address"
        }
      ],
      "stateMutability": "view",
      "type": "function",
      "constant": true
    },
    {
      "inputs": [],
      "name": "makeDonationToOwner",
      "outputs": [],
      "stateMutability": "payable",
      "type": "function",
      "payable": true
    },
    {
      "inputs": [
        {
          "components": [
            {
              "internalType": "uint256",
              "name": "id",
              "type": "uint256"
            },
            {
              "internalType": "string",
              "name": "line",
              "type": "string"
            }
          ],
          "internalType": "struct PickUpLiner.PickUpLine",
          "name": "_pickUpLine",
          "type": "tuple"
        }
      ],
      "name": "addPickUpLine",
      "outputs": [],
      "stateMutability": "nonpayable",
      "type": "function"
    },
    {
      "inputs": [
        {
          "internalType": "uint256",
          "name": "_pickUpLineId",
          "type": "uint256"
        }
      ],
      "name": "completePickUpLine",
      "outputs": [],
      "stateMutability": "nonpayable",
      "type": "function"
    },
    {
      "inputs": [
        {
          "internalType": "address",
          "name": "_user",
          "type": "address"
        }
      ],
      "name": "getUserPickUpLineArray",
      "outputs": [
        {
          "internalType": "uint256[]",
          "name": "",
          "type": "uint256[]"
        }
      ],
      "stateMutability": "view",
      "type": "function",
      "constant": true
    },
    {
      "inputs": [
        {
          "internalType": "uint256",
          "name": "_index",
          "type": "uint256"
        }
      ],
      "name": "getPickUpLine",
      "outputs": [
        {
          "components": [
            {
              "internalType": "uint256",
              "name": "id",
              "type": "uint256"
            },
            {
              "internalType": "string",
              "name": "line",
              "type": "string"
            }
          ],
          "internalType": "struct PickUpLiner.PickUpLine",
          "name": "",
          "type": "tuple"
        }
      ],
      "stateMutability": "view",
      "type": "function",
      "constant": true
    },
    {
      "inputs": [],
      "name": "getPickUpLineLength",
      "outputs": [
        {
          "internalType": "uint256",
          "name": "",
          "type": "uint256"
        }
      ],
      "stateMutability": "view",
      "type": "function",
      "constant": true
    }
  ],
  "bytecode": "0x608060405234801561001057600080fd5b5033600260006101000a81548173ffffffffffffffffffffffffffffffffffffffff021916908373ffffffffffffffffffffffffffffffffffffffff16021790555061110a806100616000396000f3fe6080604052600436106100705760003560e01c8063657788361161004e57806365778836146100f95780638da5cb5b14610122578063b653083c1461014d578063ecabec8b1461017657610070565b80632bc18515146100755780635d2a717c146100b25780636552fdd2146100ef575b600080fd5b34801561008157600080fd5b5061009c60048036038101906100979190610723565b6101a1565b6040516100a99190610835565b60405180910390f35b3480156100be57600080fd5b506100d960048036038101906100d491906108b5565b610279565b6040516100e69190610991565b60405180910390f35b6100f7610310565b005b34801561010557600080fd5b50610120600480360381019061011b9190610723565b61037b565b005b34801561012e57600080fd5b5061013761047a565b60405161014491906109c2565b60405180910390f35b34801561015957600080fd5b50610174600480360381019061016f9190610b88565b6104a0565b005b34801561018257600080fd5b5061018b61057e565b6040516101989190610be0565b60405180910390f35b6101a96106bf565b600082815481106101bd576101bc610bfb565b5b9060005260206000209060020201604051806040016040529081600082015481526020016001820180546101f090610c59565b80601f016020809104026020016040519081016040528092919081815260200182805461021c90610c59565b80156102695780601f1061023e57610100808354040283529160200191610269565b820191906000526020600020905b81548152906001019060200180831161024c57829003601f168201915b5050505050815250509050919050565b6060600160008373ffffffffffffffffffffffffffffffffffffffff1673ffffffffffffffffffffffffffffffffffffffff16815260200190815260200160002080548060200260200160405190810160405280929190818152602001828054801561030457602002820191906000526020600020905b8154815260200190600101908083116102f0575b50505050509050919050565b600260009054906101000a900473ffffffffffffffffffffffffffffffffffffffff1673ffffffffffffffffffffffffffffffffffffffff166108fc349081150290604051600060405180830381858888f19350505050158015610378573d6000803e3d6000fd5b50565b806000805490508111156103c4576040517f08c379a00000000000000000000000000000000000000000000000000000000081526004016103bb90610ce7565b60405180910390fd5b816103cf338261058a565b1561040f576040517f08c379a000000000000000000000000000000000000000000000000000000000815260040161040690610d53565b60405180910390fd5b600160003373ffffffffffffffffffffffffffffffffffffffff1673ffffffffffffffffffffffffffffffffffffffff168152602001908152602001600020839080600181540180825580915050600190039060005260206000200160009091909190915055505050565b600260009054906101000a900473ffffffffffffffffffffffffffffffffffffffff1681565b6104a8610667565b6104e7576040517f08c379a00000000000000000000000000000000000000000000000000000000081526004016104de90610dbf565b60405180910390fd5b60008054905081600001818152505060008190806001815401808255809150506001900390600052602060002090600202016000909190919091506000820151816000015560208201518160010190816105419190610f8b565b5050507f1c5236e6929d3233db21d8cf765ce839ee274dc39c0571b7813ea81c842011f9816040516105739190610835565b60405180910390a150565b60008080549050905090565b600080600090505b600160008573ffffffffffffffffffffffffffffffffffffffff1673ffffffffffffffffffffffffffffffffffffffff1681526020019081526020016000208054905081101561065b5782600160008673ffffffffffffffffffffffffffffffffffffffff1673ffffffffffffffffffffffffffffffffffffffff168152602001908152602001600020828154811061062e5761062d610bfb565b5b906000526020600020015403610648576001915050610661565b80806106539061108c565b915050610592565b50600090505b92915050565b6000600260009054906101000a900473ffffffffffffffffffffffffffffffffffffffff1673ffffffffffffffffffffffffffffffffffffffff163373ffffffffffffffffffffffffffffffffffffffff1614905090565b604051806040016040528060008152602001606081525090565b6000604051905090565b600080fd5b600080fd5b6000819050919050565b610700816106ed565b811461070b57600080fd5b50565b60008135905061071d816106f7565b92915050565b600060208284031215610739576107386106e3565b5b60006107478482850161070e565b91505092915050565b610759816106ed565b82525050565b600081519050919050565b600082825260208201905092915050565b60005b8381101561079957808201518184015260208101905061077e565b838111156107a8576000848401525b50505050565b6000601f19601f8301169050919050565b60006107ca8261075f565b6107d4818561076a565b93506107e481856020860161077b565b6107ed816107ae565b840191505092915050565b60006040830160008301516108106000860182610750565b506020830151848203602086015261082882826107bf565b9150508091505092915050565b6000602082019050818103600083015261084f81846107f8565b905092915050565b600073ffffffffffffffffffffffffffffffffffffffff82169050919050565b600061088282610857565b9050919050565b61089281610877565b811461089d57600080fd5b50565b6000813590506108af81610889565b92915050565b6000602082840312156108cb576108ca6106e3565b5b60006108d9848285016108a0565b91505092915050565b600081519050919050565b600082825260208201905092915050565b6000819050602082019050919050565b600061091a8383610750565b60208301905092915050565b6000602082019050919050565b600061093e826108e2565b61094881856108ed565b9350610953836108fe565b8060005b8381101561098457815161096b888261090e565b975061097683610926565b925050600181019050610957565b5085935050505092915050565b600060208201905081810360008301526109ab8184610933565b905092915050565b6109bc81610877565b82525050565b60006020820190506109d760008301846109b3565b92915050565b600080fd5b7f4e487b7100000000000000000000000000000000000000000000000000000000600052604160045260246000fd5b610a1a826107ae565b810181811067ffffffffffffffff82111715610a3957610a386109e2565b5b80604052505050565b6000610a4c6106d9565b9050610a588282610a11565b919050565b600080fd5b600080fd5b600080fd5b600067ffffffffffffffff821115610a8757610a866109e2565b5b610a90826107ae565b9050602081019050919050565b82818337600083830152505050565b6000610abf610aba84610a6c565b610a42565b905082815260208101848484011115610adb57610ada610a67565b5b610ae6848285610a9d565b509392505050565b600082601f830112610b0357610b02610a62565b5b8135610b13848260208601610aac565b91505092915050565b600060408284031215610b3257610b316109dd565b5b610b3c6040610a42565b90506000610b4c8482850161070e565b600083015250602082013567ffffffffffffffff811115610b7057610b6f610a5d565b5b610b7c84828501610aee565b60208301525092915050565b600060208284031215610b9e57610b9d6106e3565b5b600082013567ffffffffffffffff811115610bbc57610bbb6106e8565b5b610bc884828501610b1c565b91505092915050565b610bda816106ed565b82525050565b6000602082019050610bf56000830184610bd1565b92915050565b7f4e487b7100000000000000000000000000000000000000000000000000000000600052603260045260246000fd5b7f4e487b7100000000000000000000000000000000000000000000000000000000600052602260045260246000fd5b60006002820490506001821680610c7157607f821691505b602082108103610c8457610c83610c2a565b5b50919050565b600082825260208201905092915050565b7f5069636b207570206c696e6520646f65736e2774206578697374000000000000600082015250565b6000610cd1601a83610c8a565b9150610cdc82610c9b565b602082019050919050565b60006020820190508181036000830152610d0081610cc4565b9050919050565b7f436f6e747261637420697320616c726561647920636f6d706c65746564000000600082015250565b6000610d3d601d83610c8a565b9150610d4882610d07565b602082019050919050565b60006020820190508181036000830152610d6c81610d30565b9050919050565b7f596f75277265206e6f7420746865206f776e6572000000000000000000000000600082015250565b6000610da9601483610c8a565b9150610db482610d73565b602082019050919050565b60006020820190508181036000830152610dd881610d9c565b9050919050565b60008190508160005260206000209050919050565b60006020601f8301049050919050565b600082821b905092915050565b600060088302610e417fffffffffffffffffffffffffffffffffffffffffffffffffffffffffffffffff82610e04565b610e4b8683610e04565b95508019841693508086168417925050509392505050565b6000819050919050565b6000610e88610e83610e7e846106ed565b610e63565b6106ed565b9050919050565b6000819050919050565b610ea283610e6d565b610eb6610eae82610e8f565b848454610e11565b825550505050565b600090565b610ecb610ebe565b610ed6818484610e99565b505050565b5b81811015610efa57610eef600082610ec3565b600181019050610edc565b5050565b601f821115610f3f57610f1081610ddf565b610f1984610df4565b81016020851015610f28578190505b610f3c610f3485610df4565b830182610edb565b50505b505050565b600082821c905092915050565b6000610f6260001984600802610f44565b1980831691505092915050565b6000610f7b8383610f51565b9150826002028217905092915050565b610f948261075f565b67ffffffffffffffff811115610fad57610fac6109e2565b5b610fb78254610c59565b610fc2828285610efe565b600060209050601f831160018114610ff55760008415610fe3578287015190505b610fed8582610f6f565b865550611055565b601f19841661100386610ddf565b60005b8281101561102b57848901518255600182019150602085019450602081019050611006565b868310156110485784890151611044601f891682610f51565b8355505b6001600288020188555050505b505050505050565b7f4e487b7100000000000000000000000000000000000000000000000000000000600052601160045260246000fd5b6000611097826106ed565b91507fffffffffffffffffffffffffffffffffffffffffffffffffffffffffffffffff82036110c9576110c861105d565b5b60018201905091905056fea2646970667358221220da86aa23b8f1764e161c8cdd9dcce7c3c124f73f2d31eca92f200d6ef8502c5964736f6c634300080f0033",
  "immutableReferences": {},
  "source": "// SPDX-License-Identifier: MIT\npragma solidity >=0.4.22 <0.9.0;\n\ncontract PickUpLiner {\n    event PickUpLineAdded(PickUpLine pickUpLine);\n\n    PickUpLine[] private pickUpLines;\n    mapping(address => uint256[]) private _userToPickUpLine;\n    address public owner;\n\n    struct PickUpLine {\n        uint256 id;\n        string line;\n    }\n\n    constructor() {\n        owner = msg.sender;\n    }\n\n    function makeDonationToOwner() public payable {\n        payable(owner).transfer(msg.value);\n    }\n\n    /**\n     * @dev Will add pick up line to pick up line array\n     */\n    function addPickUpLine(PickUpLine memory _pickUpLine) public onlyOwner {\n        _pickUpLine.id = pickUpLines.length;\n        pickUpLines.push(_pickUpLine);\n\n        emit PickUpLineAdded(_pickUpLine);\n    }\n\n    function completePickUpLine(uint256 _pickUpLineId) pickUpLineExist(_pickUpLineId) notCompletedBefore(_pickUpLineId) public {\n        _userToPickUpLine[msg.sender].push(_pickUpLineId);\n    }\n\n    // getters\n\n    function getUserPickUpLineArray(address _user) public view returns(uint256[] memory) {\n      return _userToPickUpLine[_user];\n    }\n\n    function getPickUpLine(uint256 _index) public view returns (PickUpLine memory) {\n        return pickUpLines[_index];\n    }\n\n    function getPickUpLineLength() public view returns (uint256) {\n        return pickUpLines.length;\n    }\n\n    // PRIVATE METHODS\n\n    /**\n     * @return true if `msg.sender` is the owner of the contract.\n     */\n    function _isOwner() private view returns (bool) {\n        return msg.sender == owner;\n    }\n\n    function _getPickUpLineById(uint256 _pickUpLineId) private view returns (PickUpLine memory) {\n        return pickUpLines[_pickUpLineId - 1];\n    }\n\n    function _isCompleted(address _sender, uint256 _pickUpLineId) private view returns (bool) {\n        for (uint256 index = 0; index < _userToPickUpLine[_sender].length; index++) {\n            if (_userToPickUpLine[_sender][index] == _pickUpLineId) {\n                return true;\n            }\n        }\n        return false;\n    }\n\n    // MODIFIERS\n\n    /**\n     * @dev Will throw if not called by owner.\n     */\n    modifier onlyOwner() {\n        require(_isOwner(), 'You\\'re not the owner');\n        _;\n    }\n\n    // add private methods for that then simply call the private method in require\n    modifier notCompletedBefore(uint256 _pickUpLineId) {\n        require(!_isCompleted(msg.sender, _pickUpLineId), 'Contract is already completed');\n        _;\n    }\n\n    modifier pickUpLineExist(uint256 _pickUpLineId) {\n        require(_pickUpLineId <= pickUpLines.length, 'Pick up line doesn\\'t exist');\n        _;\n    }\n}\n",
  "sourcePath": "C:\\Users\\sasuke\\Desktop\\universite\\IFT-4100Aspectspratiquesdelachainedeblocs\\Tp\\tp3\\tp3-code\\contracts\\PickUpLiner.sol",
  "compiler": {
    "name": "solc",
    "version": "0.8.15+commit.e14f2714.Emscripten.clang"
  },
  "schemaVersion": "3.4.8",
  "updatedAt": "2022-07-24T22:12:40.115Z",
  "networkType": "ethereum",
  "devdoc": {
    "kind": "dev",
    "methods": {
      "addPickUpLine((uint256,string))": {
        "details": "Will add pick up line to pick up line array"
      }
    },
    "version": 1
  },
  "userdoc": {
    "kind": "user",
    "methods": {},
    "version": 1
  }
}